{"vout": [{"color": 1, "scriptPubKey": {"reqSigs": 1, "hex": "a9140fea1fb15e0c56fe6f0389c84520715526d861e587", "addresses": ["339AXdNwaL8FJ3Pw8mkwbnJnY8CetBbUP4"], "asm": "OP_HASH160 0fea1fb15e0c56fe6f0389c84520715526d861e5 OP_EQUAL", "type": "scripthash"}, "value": 200000000, "n": 0}, {"color": 0, "scriptPubKey": {"type": "nulldata", "hex": "6a4cdb7b2266756e6374696f6e5f696e707574735f68617368223a202239633533373737633030303030303030303030303030303030303030303030303030303030303030303030303030303030303030303030303030303030303030303030303030303030303030303030303030303030303030303030303030303030303030303030303030303030303030303030303030303030303030303030303030303031356265222c20226d756c74697369675f61646472223a20223333394158644e77614c38464a335077386d6b77626e4a6e59384365744262555034227d", "asm": "OP_RETURN 7b2266756e6374696f6e5f696e707574735f68617368223a202239633533373737633030303030303030303030303030303030303030303030303030303030303030303030303030303030303030303030303030303030303030303030303030303030303030303030303030303030303030303030303030303030303030303030303030303030303030303030303030303030303030303030303030303031356265222c20226d756c74697369675f61646472223a20223333394158644e77614c38464a335077386d6b77626e4a6e59384365744262555034227d"}, "value": 0, "n": 1}, {"color": 1, "scriptPubKey": {"reqSigs": 1, "hex": "76a914917eea4eb4ee8ef72673ea5ff096a327223a743988ac", "addresses": ["1EGK23U1LXWpcC1yjUHoFv84WDws9BkvRs"], "asm": "OP_DUP OP_HASH160 917eea4eb4ee8ef72673ea5ff096a327223a7439 OP_EQUALVERIFY OP_CHECKSIG", "type": "pubkeyhash"}, "value": 9000300000000, "n": 2}], "blockhash": "000008ff7c64802a52740385c39306b16f8094c24d2d3f0d544211faa0796d7d", "hex": "010000000197da220f0a50d281e6e415ee979dec47e21901e687ee2784d6b7e8adb399be3b020000006a47304402204ca5e8bed8bc6dcf6b0baf04ee05a3dbc91d70d487b461d35f7feb0e933dc1a70220195a3eaaa26c0bf95886107ff72afe14d32be8f350d3ddc48a8f21fe96d93a840121039ba7a3ec6aac2c5795b6617aac7d6f07953d15b48f4c92644d186eab270569c8ffffffff0300c2eb0b0000000017a9140fea1fb15e0c56fe6f0389c84520715526d861e587010000000000000000000000de6a4cdb7b2266756e6374696f6e5f696e707574735f68617368223a202239633533373737633030303030303030303030303030303030303030303030303030303030303030303030303030303030303030303030303030303030303030303030303030303030303030303030303030303030303030303030303030303030303030303030303030303030303030303030303030303030303030303030303030303031356265222c20226d756c74697369675f61646472223a20223333394158644e77614c38464a335077386d6b77626e4a6e59384365744262555034227d000000000033af8b2f0800001976a914917eea4eb4ee8ef72673ea5ff096a327223a743988ac010000000000000005000000", "vin": [{"sequence": 4294967295, "scriptSig": {"hex": "47304402204ca5e8bed8bc6dcf6b0baf04ee05a3dbc91d70d487b461d35f7feb0e933dc1a70220195a3eaaa26c0bf95886107ff72afe14d32be8f350d3ddc48a8f21fe96d93a840121039ba7a3ec6aac2c5795b6617aac7d6f07953d15b48f4c92644d186eab270569c8", "asm": "304402204ca5e8bed8bc6dcf6b0baf04ee05a3dbc91d70d487b461d35f7feb0e933dc1a70220195a3eaaa26c0bf95886107ff72afe14d32be8f350d3ddc48a8f21fe96d93a8401 039ba7a3ec6aac2c5795b6617aac7d6f07953d15b48f4c92644d186eab270569c8"}, "vout": 2, "txid": "3bbe99b3ade8b7d68427ee87e60119e247ec9d97ee15e4e681d2500a0f22da97"}], "txid": "f70e8a1d192ada98c4640524910e18d4cf3e0901a00f0358e41e5ceec9e8cb5f", "blocktime": 1483425584, "version": 1, "confirmations": 40, "time": 1483425584, "locktime": 0, "type": "CONTRACT", "size": 470}
