{"vout": [{"color": 1, "scriptPubKey": {"reqSigs": 1, "hex": "a9140fea1fb15e0c56fe6f0389c84520715526d861e587", "addresses": ["339AXdNwaL8FJ3Pw8mkwbnJnY8CetBbUP4"], "asm": "OP_HASH160 0fea1fb15e0c56fe6f0389c84520715526d861e5 OP_EQUAL", "type": "scripthash"}, "value": 100000000, "n": 0}, {"color": 0, "scriptPubKey": {"type": "nulldata", "hex": "6a4d8a037b22736f757263655f636f6465223a202236303630363034303532363130313865383036313030313236303030333936303030663336303630363034303532363030303335376330313030303030303030303030303030303030303030303030303030303030303030303030303030303030303030303030303030303030303030393030343830363334363238326331323134363130303532353738303633396335333737376331343631303038333537383036333965323933326362313436313030613935373631303034643536356236313030303235363562333436313030303235373631303036643630303438303830333539303630323030313930393139303530353036313030646135363562363034303531383038323831353236303230303139313530353036303430353138303931303339306633356233343631303030323537363130306137363030343830383033353930363032303031393039313930383033353930363032303031393039313930353035303631303130323536356230303562333436313030303235373631303063343630303438303830333539303630323030313930393139303530353036313031373335363562363034303531383038323831353236303230303139313530353036303430353138303931303339306633356236303030363030303630303035303630303038333831353236303230303139303831353236303230303136303030323036303030353035343930353036313030666435363562393139303530353635623830363030303630303035303630303038343831353236303230303139303831353236303230303136303030323036303030353038313930353535303333373366666666666666666666666666666666666666666666666666666666666666666666666666666666313637663730633832353164316635316639346162323632313361306464353365616431626633326165656232653935626236343937643864386262646536316239386434323630343035313830383238313532363032303031393135303530363034303531383039313033393061323562353035303536356236303030363030303530363032303532383036303030353236303430363030303230363030303931353039303530353438313536222c20226d756c74697369675f61646472223a20223333394158644e77614c38464a335077386d6b77626e4a6e59384365744262555034227d", "asm": "OP_RETURN 7b22736f757263655f636f6465223a202236303630363034303532363130313865383036313030313236303030333936303030663336303630363034303532363030303335376330313030303030303030303030303030303030303030303030303030303030303030303030303030303030303030303030303030303030303030393030343830363334363238326331323134363130303532353738303633396335333737376331343631303038333537383036333965323933326362313436313030613935373631303034643536356236313030303235363562333436313030303235373631303036643630303438303830333539303630323030313930393139303530353036313030646135363562363034303531383038323831353236303230303139313530353036303430353138303931303339306633356233343631303030323537363130306137363030343830383033353930363032303031393039313930383033353930363032303031393039313930353035303631303130323536356230303562333436313030303235373631303063343630303438303830333539303630323030313930393139303530353036313031373335363562363034303531383038323831353236303230303139313530353036303430353138303931303339306633356236303030363030303630303035303630303038333831353236303230303139303831353236303230303136303030323036303030353035343930353036313030666435363562393139303530353635623830363030303630303035303630303038343831353236303230303139303831353236303230303136303030323036303030353038313930353535303333373366666666666666666666666666666666666666666666666666666666666666666666666666666666313637663730633832353164316635316639346162323632313361306464353365616431626633326165656232653935626236343937643864386262646536316239386434323630343035313830383238313532363032303031393135303530363034303531383039313033393061323562353035303536356236303030363030303530363032303532383036303030353236303430363030303230363030303931353039303530353438313536222c20226d756c74697369675f61646472223a20223333394158644e77614c38464a335077386d6b77626e4a6e59384365744262555034227d"}, "value": 0, "n": 1}, {"color": 1, "scriptPubKey": {"reqSigs": 1, "hex": "76a914917eea4eb4ee8ef72673ea5ff096a327223a743988ac", "addresses": ["1EGK23U1LXWpcC1yjUHoFv84WDws9BkvRs"], "asm": "OP_DUP OP_HASH160 917eea4eb4ee8ef72673ea5ff096a327223a7439 OP_EQUALVERIFY OP_CHECKSIG", "type": "pubkeyhash"}, "value": 9000600000000, "n": 2}], "blockhash": "0000038c35d6ba12348610d5732b3aa1ae6d37ee3110c4ddf10a72278be3cb2c", "hex": "01000000012cb24565e5b0c4c46a15d0638d579034d187771cc204c0fb19bb2376b311fe29020000006b4830450221008122f25d661603be767199ffa2b8635f7c2cb1e739445345c5350a58c6c999c302205f6da8f6b8e91d85ef87bd5d3ece8a61855921951efcf9b7ded38c44af400c7d0121039ba7a3ec6aac2c5795b6617aac7d6f07953d15b48f4c92644d186eab270569c8ffffffff0300e1f5050000000017a9140fea1fb15e0c56fe6f0389c84520715526d861e587010000000000000000000000fd8e036a4d8a037b22736f757263655f636f6465223a202236303630363034303532363130313865383036313030313236303030333936303030663336303630363034303532363030303335376330313030303030303030303030303030303030303030303030303030303030303030303030303030303030303030303030303030303030303030393030343830363334363238326331323134363130303532353738303633396335333737376331343631303038333537383036333965323933326362313436313030613935373631303034643536356236313030303235363562333436313030303235373631303036643630303438303830333539303630323030313930393139303530353036313030646135363562363034303531383038323831353236303230303139313530353036303430353138303931303339306633356233343631303030323537363130306137363030343830383033353930363032303031393039313930383033353930363032303031393039313930353035303631303130323536356230303562333436313030303235373631303063343630303438303830333539303630323030313930393139303530353036313031373335363562363034303531383038323831353236303230303139313530353036303430353138303931303339306633356236303030363030303630303035303630303038333831353236303230303139303831353236303230303136303030323036303030353035343930353036313030666435363562393139303530353635623830363030303630303035303630303038343831353236303230303139303831353236303230303136303030323036303030353038313930353535303333373366666666666666666666666666666666666666666666666666666666666666666666666666666666313637663730633832353164316635316639346162323632313361306464353365616431626633326165656232653935626236343937643864386262646536316239386434323630343035313830383238313532363032303031393135303530363034303531383039313033393061323562353035303536356236303030363030303530363032303532383036303030353236303430363030303230363030303931353039303530353438313536222c20226d756c74697369675f61646472223a20223333394158644e77614c38464a335077386d6b77626e4a6e59384365744262555034227d0000000000d6909d2f0800001976a914917eea4eb4ee8ef72673ea5ff096a327223a743988ac010000000000000005000000", "vin": [{"sequence": 4294967295, "scriptSig": {"hex": "4830450221008122f25d661603be767199ffa2b8635f7c2cb1e739445345c5350a58c6c999c302205f6da8f6b8e91d85ef87bd5d3ece8a61855921951efcf9b7ded38c44af400c7d0121039ba7a3ec6aac2c5795b6617aac7d6f07953d15b48f4c92644d186eab270569c8", "asm": "30450221008122f25d661603be767199ffa2b8635f7c2cb1e739445345c5350a58c6c999c302205f6da8f6b8e91d85ef87bd5d3ece8a61855921951efcf9b7ded38c44af400c7d01 039ba7a3ec6aac2c5795b6617aac7d6f07953d15b48f4c92644d186eab270569c8"}, "vout": 2, "txid": "29fe11b37623bb19fbc004c21c7787d13490578d63d0156ac4c4b0e56545b22c"}], "txid": "3bbe99b3ade8b7d68427ee87e60119e247ec9d97ee15e4e681d2500a0f22da97", "blocktime": 1483424700, "version": 1, "confirmations": 51, "time": 1483424700, "locktime": 0, "type": "CONTRACT", "size": 1161}
